{
  "contractName": "LexSplitter",
  "abi": [
    {
      "constant": true,
      "inputs": [],
      "name": "amountPerPlayInWei",
      "outputs": [
        {
          "name": "",
          "type": "uint256"
        }
      ],
      "payable": false,
      "stateMutability": "view",
      "type": "function",
      "signature": "0x4ebdaf7a"
    },
    {
      "constant": true,
      "inputs": [],
      "name": "counter",
      "outputs": [
        {
          "name": "",
          "type": "uint256"
        }
      ],
      "payable": false,
      "stateMutability": "view",
      "type": "function",
      "signature": "0x61bc221a"
    },
    {
      "inputs": [
        {
          "name": "_artist",
          "type": "address"
        },
        {
          "name": "_publisher",
          "type": "address"
        },
        {
          "name": "_other",
          "type": "address"
        },
        {
          "name": "_lex",
          "type": "address"
        }
      ],
      "payable": false,
      "stateMutability": "nonpayable",
      "type": "constructor",
      "signature": "constructor"
    },
    {
      "constant": false,
      "inputs": [],
      "name": "play",
      "outputs": [],
      "payable": true,
      "stateMutability": "payable",
      "type": "function",
      "signature": "0x93e84cd9"
    }
  ],
  "bytecode": "0x6080604052600080556103e860015534801561001a57600080fd5b5060405160808061020b8339810180604052608081101561003a57600080fd5b5080516020820151604083015160609093015160028054600160a060020a0319908116600160a060020a0395861617909155600380548216938516939093179092556004805483169484169490941790935560058054929093169116179055610163806100a86000396000f3fe6080604052600436106100565763ffffffff7c01000000000000000000000000000000000000000000000000000000006000350416634ebdaf7a811461005b57806361bc221a1461008257806393e84cd914610097575b600080fd5b34801561006757600080fd5b506100706100a1565b60408051918252519081900360200190f35b34801561008e57600080fd5b506100706100a7565b61009f6100ad565b005b60015481565b60005481565b6001543410156100bc57600080fd5b60008054600190810182555460049004905b600481101561013357600281600481106100e457fe5b015460405173ffffffffffffffffffffffffffffffffffffffff9091169083156108fc029084906000818181858888f1935050505015801561012a573d6000803e3d6000fd5b506001016100ce565b505056fea165627a7a72305820ffe0ad2a7262c5c866f1cee338120e65e6018ff9f7fba23db7bac7f978af5f760029",
  "source": "pragma solidity ^0.5.0;\n\ncontract LexSplitter {\n\n    uint256 public counter = 0;\n    uint256 public amountPerPlayInWei = 1000;\n\n    address payable[4] royalties;\n\n    constructor(address payable _artist,  address payable _publisher, address payable _other, address payable _lex) public {\n        royalties[0] = _artist;\n        royalties[1] = _publisher;\n        royalties[2] = _other;\n        royalties[3] = _lex;\n    }\n\n    function play() public payable {\n        require(msg.value >= amountPerPlayInWei);\n\n        counter = counter + 1;\n\n        uint256 share = amountPerPlayInWei / royalties.length;\n        for (uint i = 0; i < royalties.length; i++) {\n            royalties[i].transfer(share);\n        }\n    }\n}\n",
  "sourcePath": "/Users/andy/workspace/l2-scaling-demos/demo-contracts/contracts/LexSplitter.sol",
  "compiler": {
    "name": "solc",
    "version": "0.5.0+commit.1d4f565a.Emscripten.clang"
  },
  "schemaVersion": "3.0.1",
  "updatedAt": "2019-07-19T11:12:26.204Z",
  "devdoc": {
    "methods": {}
  },
  "userdoc": {
    "methods": {}
  }
}